:1000000000308A002B280000F701F80125080310B2
:100010002618F707F70CF80CA618F707F70CF80CDA
:100020002619F707F70CF80CA619F707F70CF80CC8
:10003000261AF707F70CF80CA61AF707F70CF80CB6
:10004000261BF707F70CF80CA61BF707F70CF80CA4
:100050008A110A128E28840183131F3083058316A8
:100060001F149F141F159F1107309C008312A001BD
:10007000A101A201A301FF30A40083161F109F1449
:100080001F159F151F1383121F179F1783169F1786
:1000900083121F148316091283129412A4122408C7
:1000A0008316870083122416240883168700831280
:1000B000A4112408831687000130831294000030B5
:1000C000831694000108C739083881008312900113
:1000D0000030F800920000308316920007309C0038
:1000E00005080330F700F70B73281C0883120D1363
:1000F00083169D0100308600FF3087008312A40024
:100100001F151F19812883161E088312A0001E08C0
:10011000A1000708A5007130A6000428A3017808F3
:10012000A20021082302031C9E28031D9B282208ED
:10013000200203189E28803086009F288601802890
:0201400063005A
:02400E00713F00
:00000001FF
;PIC16F877A
