:1000000000308A002B280000F801F901F701FA01FD
:100010002808031D0E282708031928281030A900D6
:100020000310A50DA60DF70DFA0D28087A02031D81
:100030001B2827087702031C24282708F702031C23
:10004000FA032808FA020314F80DF90DA90B102879
:100050008A110A128E28840183131F3083058316A8
:100060001F149F141F159F1107309C008312A001BD
:10007000A101A201A301FF30A40083161F109F1449
:100080001F159F151F1383121F179F1783169F138A
:1000900083121F148316091283129412A4122408C7
:1000A0008316870083122416240883168700831280
:1000B000A4112408831687000130831294000030B5
:1000C000831694000108C739083881008312900113
:1000D0000030F800920000308316920007309C0038
:1000E00005080330F700F70B73281C0883120D1363
:1000F00083169D0100308600FF3087008312A40024
:100100001F151F1981281E08A101A0002108A600A3
:100110002008A500A8010F30A70004287908A10035
:100120007808A000A3010708A20023082102031CED
:10013000A228031D9F28200822020318A22880302D
:0A0140008600A328860180286300D2
:02400E00713F00
:00000001FF
;PIC16F877A
