:1000000000308A0004280000840183131F30830518
:1000100083161F149F141F159F1107309C00831215
:10002000A001A101FF30A20083161F109F141F150D
:100030009F151F1383121F179F1783169F17831275
:100040001F148316091283129412A2122208831617
:100050008700831222162208831687008312A211BA
:100060002208831687000130831294000030831623
:1000700094000108C73908388100831290010030CC
:10008000F800920000308316920007309C000508AB
:100090000330F700F70B4A281C0883120D13831650
:1000A0009D0100308600FF3087008312A2001F15DB
:1000B0001F19582883161E088312A0001E08A100CD
:1000C00020088600A108031D6C28070820020318D9
:0E00D0006C28FF3086006D28860157286300DB
:02400E00713F00
:00000001FF
;PIC16F877A
